{
  "_format": "hh-sol-artifact-1",
  "contractName": "AaveLiquidityPool",
  "sourceName": "contracts/AaveLiquidityPool.sol",
  "abi": [
    {
      "inputs": [
        {
          "internalType": "address",
          "name": "_addressesProvider",
          "type": "address"
        }
      ],
      "stateMutability": "nonpayable",
      "type": "constructor"
    },
    {
      "inputs": [],
      "name": "ADDRESSES_PROVIDER",
      "outputs": [
        {
          "internalType": "contract IPoolAddressesProvider",
          "name": "",
          "type": "address"
        }
      ],
      "stateMutability": "view",
      "type": "function"
    },
    {
      "inputs": [],
      "name": "POOL",
      "outputs": [
        {
          "internalType": "contract IPool",
          "name": "",
          "type": "address"
        }
      ],
      "stateMutability": "view",
      "type": "function"
    },
    {
      "inputs": [
        {
          "internalType": "address",
          "name": "_poolContractAddress",
          "type": "address"
        }
      ],
      "name": "allowanceLink",
      "outputs": [
        {
          "internalType": "uint256",
          "name": "",
          "type": "uint256"
        }
      ],
      "stateMutability": "view",
      "type": "function"
    },
    {
      "inputs": [
        {
          "internalType": "uint256",
          "name": "_amount",
          "type": "uint256"
        },
        {
          "internalType": "address",
          "name": "_poolContractAddress",
          "type": "address"
        }
      ],
      "name": "approveLINK",
      "outputs": [
        {
          "internalType": "bool",
          "name": "",
          "type": "bool"
        }
      ],
      "stateMutability": "nonpayable",
      "type": "function"
    },
    {
      "inputs": [
        {
          "internalType": "address",
          "name": "_tokenAddress",
          "type": "address"
        }
      ],
      "name": "getBalance",
      "outputs": [
        {
          "internalType": "uint256",
          "name": "",
          "type": "uint256"
        }
      ],
      "stateMutability": "view",
      "type": "function"
    },
    {
      "inputs": [
        {
          "internalType": "address",
          "name": "_addressUser",
          "type": "address"
        }
      ],
      "name": "getUserAccountData",
      "outputs": [
        {
          "internalType": "uint256",
          "name": "totalCollateralBase",
          "type": "uint256"
        },
        {
          "internalType": "uint256",
          "name": "totalDebtBase",
          "type": "uint256"
        },
        {
          "internalType": "uint256",
          "name": "availableBorrowsBase",
          "type": "uint256"
        },
        {
          "internalType": "uint256",
          "name": "currentLiquidationThreshold",
          "type": "uint256"
        },
        {
          "internalType": "uint256",
          "name": "ltv",
          "type": "uint256"
        },
        {
          "internalType": "uint256",
          "name": "healthFactor",
          "type": "uint256"
        }
      ],
      "stateMutability": "view",
      "type": "function"
    },
    {
      "inputs": [
        {
          "internalType": "address",
          "name": "_tokenAddress",
          "type": "address"
        },
        {
          "internalType": "uint256",
          "name": "_amount",
          "type": "uint256"
        }
      ],
      "name": "supplyLiquidity",
      "outputs": [],
      "stateMutability": "nonpayable",
      "type": "function"
    },
    {
      "inputs": [
        {
          "internalType": "address",
          "name": "_tokenAddress",
          "type": "address"
        }
      ],
      "name": "withdraw",
      "outputs": [],
      "stateMutability": "nonpayable",
      "type": "function"
    },
    {
      "inputs": [
        {
          "internalType": "address",
          "name": "_tokenAddress",
          "type": "address"
        },
        {
          "internalType": "uint256",
          "name": "_amount",
          "type": "uint256"
        }
      ],
      "name": "withdrawLiquidity",
      "outputs": [
        {
          "internalType": "uint256",
          "name": "",
          "type": "uint256"
        }
      ],
      "stateMutability": "nonpayable",
      "type": "function"
    },
    {
      "stateMutability": "payable",
      "type": "receive"
    }
  ],
  "bytecode": "0x60e060405273f8fb3713d459d7c1018bd0a49d19b4c44290ebe573ffffffffffffffffffffffffffffffffffffffff1660c09073ffffffffffffffffffffffffffffffffffffffff168152503480156200005857600080fd5b50604051620010d0380380620010d083398181016040528101906200007e91906200024d565b8073ffffffffffffffffffffffffffffffffffffffff1660808173ffffffffffffffffffffffffffffffffffffffff168152505060805173ffffffffffffffffffffffffffffffffffffffff1663026b1d5f6040518163ffffffff1660e01b8152600401602060405180830381865afa15801562000100573d6000803e3d6000fd5b505050506040513d601f19601f820116820180604052508101906200012691906200024d565b73ffffffffffffffffffffffffffffffffffffffff1660a08173ffffffffffffffffffffffffffffffffffffffff1681525050336000806101000a81548173ffffffffffffffffffffffffffffffffffffffff021916908373ffffffffffffffffffffffffffffffffffffffff16021790555060c051600160006101000a81548173ffffffffffffffffffffffffffffffffffffffff021916908373ffffffffffffffffffffffffffffffffffffffff160217905550506200027f565b600080fd5b600073ffffffffffffffffffffffffffffffffffffffff82169050919050565b60006200021582620001e8565b9050919050565b620002278162000208565b81146200023357600080fd5b50565b60008151905062000247816200021c565b92915050565b600060208284031215620002665762000265620001e3565b5b6000620002768482850162000236565b91505092915050565b60805160a05160c051610e0f620002c160003960005050600081816102aa0152818161058e0152818161066a015261070c015260006102760152610e0f6000f3fe60806040526004361061008a5760003560e01c80637535d246116100595780637535d24614610164578063ad6a9e0a1461018f578063b39e3771146101cc578063bf92857c146101f5578063f8b2cb4f1461023757610091565b80630542975c1461009657806306d47de9146100c15780632e8984eb146100fe57806351cff8d91461013b57610091565b3661009157005b600080fd5b3480156100a257600080fd5b506100ab610274565b6040516100b891906108bb565b60405180910390f35b3480156100cd57600080fd5b506100e860048036038101906100e3919061094f565b610298565b6040516100f5919061099e565b60405180910390f35b34801561010a57600080fd5b50610125600480360381019061012091906109b9565b610353565b6040516101329190610a14565b60405180910390f35b34801561014757600080fd5b50610162600480360381019061015d9190610a2f565b6103fd565b005b34801561017057600080fd5b5061017961058c565b6040516101869190610a7d565b60405180910390f35b34801561019b57600080fd5b506101b660048036038101906101b19190610a2f565b6105b0565b6040516101c3919061099e565b60405180910390f35b3480156101d857600080fd5b506101f360048036038101906101ee919061094f565b610657565b005b34801561020157600080fd5b5061021c60048036038101906102179190610a2f565b610701565b60405161022e96959493929190610a98565b60405180910390f35b34801561024357600080fd5b5061025e60048036038101906102599190610a2f565b6107b9565b60405161026b919061099e565b60405180910390f35b7f000000000000000000000000000000000000000000000000000000000000000081565b600080839050600083905060003090507f000000000000000000000000000000000000000000000000000000000000000073ffffffffffffffffffffffffffffffffffffffff166369328dec8484846040518463ffffffff1660e01b815260040161030593929190610b08565b6020604051808303816000875af1158015610324573d6000803e3d6000fd5b505050506040513d601f19601f820116820180604052508101906103489190610b54565b935050505092915050565b6000600160009054906101000a900473ffffffffffffffffffffffffffffffffffffffff1673ffffffffffffffffffffffffffffffffffffffff1663095ea7b383856040518363ffffffff1660e01b81526004016103b2929190610b81565b6020604051808303816000875af11580156103d1573d6000803e3d6000fd5b505050506040513d601f19601f820116820180604052508101906103f59190610bd6565b905092915050565b60008054906101000a900473ffffffffffffffffffffffffffffffffffffffff1673ffffffffffffffffffffffffffffffffffffffff163373ffffffffffffffffffffffffffffffffffffffff161461048b576040517f08c379a000000000000000000000000000000000000000000000000000000000815260040161048290610c86565b60405180910390fd5b60008190508073ffffffffffffffffffffffffffffffffffffffff1663a9059cbb338373ffffffffffffffffffffffffffffffffffffffff166370a08231306040518263ffffffff1660e01b81526004016104e69190610ca6565b602060405180830381865afa158015610503573d6000803e3d6000fd5b505050506040513d601f19601f820116820180604052508101906105279190610b54565b6040518363ffffffff1660e01b8152600401610544929190610b81565b6020604051808303816000875af1158015610563573d6000803e3d6000fd5b505050506040513d601f19601f820116820180604052508101906105879190610bd6565b505050565b7f000000000000000000000000000000000000000000000000000000000000000081565b6000600160009054906101000a900473ffffffffffffffffffffffffffffffffffffffff1673ffffffffffffffffffffffffffffffffffffffff1663dd62ed3e30846040518363ffffffff1660e01b815260040161060f929190610cc1565b602060405180830381865afa15801561062c573d6000803e3d6000fd5b505050506040513d601f19601f820116820180604052508101906106509190610b54565b9050919050565b60008290506000829050600030905060007f000000000000000000000000000000000000000000000000000000000000000073ffffffffffffffffffffffffffffffffffffffff1663617ba037858585856040518563ffffffff1660e01b81526004016106c79493929190610d07565b600060405180830381600087803b1580156106e157600080fd5b505af11580156106f5573d6000803e3d6000fd5b50505050505050505050565b6000806000806000807f000000000000000000000000000000000000000000000000000000000000000073ffffffffffffffffffffffffffffffffffffffff1663bf92857c886040518263ffffffff1660e01b81526004016107639190610ca6565b60c060405180830381865afa158015610780573d6000803e3d6000fd5b505050506040513d601f19601f820116820180604052508101906107a49190610d4c565b95509550955095509550955091939550919395565b60008173ffffffffffffffffffffffffffffffffffffffff166370a08231306040518263ffffffff1660e01b81526004016107f49190610ca6565b602060405180830381865afa158015610811573d6000803e3d6000fd5b505050506040513d601f19601f820116820180604052508101906108359190610b54565b9050919050565b600073ffffffffffffffffffffffffffffffffffffffff82169050919050565b6000819050919050565b600061088161087c6108778461083c565b61085c565b61083c565b9050919050565b600061089382610866565b9050919050565b60006108a582610888565b9050919050565b6108b58161089a565b82525050565b60006020820190506108d060008301846108ac565b92915050565b600080fd5b60006108e68261083c565b9050919050565b6108f6816108db565b811461090157600080fd5b50565b600081359050610913816108ed565b92915050565b6000819050919050565b61092c81610919565b811461093757600080fd5b50565b60008135905061094981610923565b92915050565b60008060408385031215610966576109656108d6565b5b600061097485828601610904565b92505060206109858582860161093a565b9150509250929050565b61099881610919565b82525050565b60006020820190506109b3600083018461098f565b92915050565b600080604083850312156109d0576109cf6108d6565b5b60006109de8582860161093a565b92505060206109ef85828601610904565b9150509250929050565b60008115159050919050565b610a0e816109f9565b82525050565b6000602082019050610a296000830184610a05565b92915050565b600060208284031215610a4557610a446108d6565b5b6000610a5384828501610904565b91505092915050565b6000610a6782610888565b9050919050565b610a7781610a5c565b82525050565b6000602082019050610a926000830184610a6e565b92915050565b600060c082019050610aad600083018961098f565b610aba602083018861098f565b610ac7604083018761098f565b610ad4606083018661098f565b610ae1608083018561098f565b610aee60a083018461098f565b979650505050505050565b610b02816108db565b82525050565b6000606082019050610b1d6000830186610af9565b610b2a602083018561098f565b610b376040830184610af9565b949350505050565b600081519050610b4e81610923565b92915050565b600060208284031215610b6a57610b696108d6565b5b6000610b7884828501610b3f565b91505092915050565b6000604082019050610b966000830185610af9565b610ba3602083018461098f565b9392505050565b610bb3816109f9565b8114610bbe57600080fd5b50565b600081519050610bd081610baa565b92915050565b600060208284031215610bec57610beb6108d6565b5b6000610bfa84828501610bc1565b91505092915050565b600082825260208201905092915050565b7f596f7520646f6e27742068617665207065726d697373696f6e2c206f6e6c792060008201527f6f776e65722063616e20706572666f726d207468697320616374696f6e000000602082015250565b6000610c70603d83610c03565b9150610c7b82610c14565b604082019050919050565b60006020820190508181036000830152610c9f81610c63565b9050919050565b6000602082019050610cbb6000830184610af9565b92915050565b6000604082019050610cd66000830185610af9565b610ce36020830184610af9565b9392505050565b600061ffff82169050919050565b610d0181610cea565b82525050565b6000608082019050610d1c6000830187610af9565b610d29602083018661098f565b610d366040830185610af9565b610d436060830184610cf8565b95945050505050565b60008060008060008060c08789031215610d6957610d686108d6565b5b6000610d7789828a01610b3f565b9650506020610d8889828a01610b3f565b9550506040610d9989828a01610b3f565b9450506060610daa89828a01610b3f565b9350506080610dbb89828a01610b3f565b92505060a0610dcc89828a01610b3f565b915050929550929550929556fea2646970667358221220f021cf08dc904c6fcc28df7041a6e165cae89ee4963acb004b87b5747c39738f64736f6c63430008180033",
  "linkReferences": {},
  "deployedLinkReferences": {}
}